:020000040000FA
:10000000587E00206D020000810200008302000083
:10001000850200008502000085020000000000004B
:100020000000000000000000000000008502000049
:10003000850200000000000085020000850200002B
:100040008502000085020000850200008502000094
:100050008502000085020000850200008502000084
:100060008502000085020000850200008502000074
:100070008502000085020000850200008502000064
:100080008502000085020000850200008502000054
:100090008502000085020000850200008502000044
:1000A0008502000085020000850200008502000034
:1000B0008502000085020000850200008502000024
:1000C0008502000085020000850200008502000014
:1000D0008502000085020000850200008502000004
:1000E000850200008502000000000000850200007B
:1000F00085020000850200008502000085020000E4
:1001000085020000850200008502000085020000D3
:1001100000000000000000008502000085020000D1
:1001200085020000850200008502000085020000B3
:1001300085020000850200008502000085020000A3
:1001400000000000000000000000000000000000AF
:100150008502000085020000850200008502000083
:10016000000000000000000000000000000000008F
:10017000000000000000000000000000000000007F
:10018000000000000000000000000000000000006F
:10019000000000000000000000000000000000005F
:1001A000000000000000000000000000000000004F
:1001B0008502000085020000850200008502000023
:1001C0008502000085020000850200008502000013
:1001D0008502000085020000850200008502000003
:1001E000850200008502000085020000000000007A
:1001F000000000008502000085020000850200006A
:1002000085020000850200000000000000000000E0
:1002100085020000850200008502000085020000C2
:1002200085020000850200008502000085020000B2
:1002300085020000850200008502000085020000A2
:100240008502000085020000850200008502000092
:100250008502000085020000850200008502000082
:100260008502000085020000850200004EF68850DD
:10027000CEF20000016841F47001016000F004B8A2
:10028000FEE7FEE7FEE7000000F002F800F05CF891
:100290000AA090E8000C82448344AAF10107DA45E1
:1002A00001D100F051F8AFF2090EBAE80F0013F0D7
:1002B000010F18BFFB1A43F00103184738880300E9
:1002C000588803000A444FF0000C10F8013B13F06B
:1002D000070408BF10F8014B1D1108BF10F8015B9F
:1002E000641E05D010F8016B641E01F8016BF9D192
:1002F00013F0080F1EBF10F8014BAD1C0C1B09D1E9
:100300006D1E58BF01F801CBFAD505E014F8016B5A
:1003100001F8016B6D1EF9D59142D6D370470000EC
:100320000023002400250026103A28BF78C1FBD8FE
:10033000520728BF30C148BF0B6070471FB535F06A
:1003400088F91FBD10B510BD00F05BF91146FFF72D
:10035000F5FF30F059FD00F079F903B4FFF7F2FF33
:1003600003BC00F07DF90000EFF3108072B6704717
:10037000EFF310807047EFF3108062B6704730BF24
:10038000704780F311887047EFF3118070470000C9
:100390000138FDD17047000002480349034A044B6D
:1003A0007047000058720020587E002058760020C8
:1003B0005876002070B50446051F00F009F9006862
:1003C000002C14BF446870BD002C18BFAC423CBF69
:1003D00020466468F8D301680A18AA4218BF45602D
:1003E00003D12A6805461144016028684119A142D9
:1003F0001CBF6C6070BD616869602168084428603A
:1004000070BD10B5431C02E010F8011B71B18107EB
:10041000FAD14FF0013202C88C1A8C4314EAC2118F
:10042000F9D0C01A0A0603D0C01E10BDC01A10BDF4
:100430000A0401D0801E10BD0902FCD0401E10BD70
:10044000032A40F2308010F0030C00F0158011F800
:10045000013BBCF1020F624498BF11F801CB00F8D8
:10046000013B38BF11F8013BA2F1040298BF00F82C
:1004700001CB38BF00F8013B11F0030300F02980E5
:10048000083AC0F0088051F8043B083A51F804CB10
:10049000A0E80810F5E7121D5CBF51F8043B40F8D6
:1004A000043BAFF30080D20724BF11F8013B11F8E1
:1004B00001CB48BF11F8012B24BF00F8013B00F825
:1004C00001CB48BF00F8012B704701B5FFF7B8FF1B
:1004D00001BD10B5203AC0F00B80B1E81850203AA9
:1004E000A0E81850B1E81850A0E81850BFF4F5AFD4
:1004F0005FEA027C24BFB1E81850A0E8185044BF5E
:1005000018C918C0BDE810405FEA827C24BF51F8CA
:10051000043B40F8043B08BF7047D20728BF31F8BE
:10052000023B48BF11F8012B28BF20F8023B48BF0F
:1005300000F8012B70474FF000020429C0F0128030
:1005400010F0030C00F01B80CCF1040CBCF1020F86
:1005500018BF00F8012BA8BF20F8022BA1EB0C015B
:1005600000F00DB85FEAC17C24BF00F8012B00F851
:10057000012B48BF00F8012B70474FF0000200B577
:10058000134694469646203922BFA0E80C50A0E8B6
:100590000C50B1F12001BFF4F7AF090728BFA0E864
:1005A0000C5048BF0CC05DF804EB890028BF40F830
:1005B000042B08BF704748BF20F8022B11F0804F72
:1005C00018BF00F8012B7047704770477047000054
:1005D000004870470072002010B500F00DF8006868
:1005E00010BD10B5044600F007F8046010BD00000F
:1005F00000487047F871002000487047F8710020EB
:1006000070477546FFF7F4FFAE460500694653464E
:1006100020F00700854618B020B5FFF7BDFEBDE805
:1006200020404FF000064FF000074FF000084FF059
:10063000000B21F00701AC46ACE8C009ACE8C009EA
:10064000ACE8C009ACE8C0098D46704710B5044657
:10065000AFF300802046BDE81040FFF77EBE0000EB
:1006600001491820ABBEFEE72600020010B506487F
:1006700025F0DEFC0021054800F00CF8044A0021BA
:10068000024800F04DF810BDE02900200080034032
:10069000C029002001228A40C260704701228A409E
:1006A000C260826801238B401A438260704782686F
:1006B0000A43826070472DE9F04105460E46144614
:1006C0003146284627F074FE0746214638460CF08E
:1006D00007FE38460CF092FDBDE8F08110B50A0C1B
:1006E000120401F00F040123A3401A43836A1A4342
:1006F000826210BD30B5890044690F258D40AC433E
:1007000002F00F058D402C434461056A0F248C4094
:1007100025EA040403F003058D402C43046230BD38
:1007200010B503464C0140342344002002E09C688D
:1007300010C2401CDC6804F480740CB90828F6D39D
:1007400010BD026801238B401A430260704770B5E8
:100750000C46650140352844920005680F269640F6
:10076000B54303F00F0696403543056086690F25B3
:10077000954026EA0505C3F3032696403543856177
:1007800046680F25954026EA0505C3F303169640F3
:100790003543456003F4702575B141690F259540D7
:1007A000A943C3F3024595402943416106690125E8
:1007B00095402E43066104E0066901259540AE434D
:1007C000066170BD0EB5364836494860082088601D
:1007D000012048708870324833494860082088609A
:1007E0000120487088702E48304948600820886091
:1007F0000120487088702A482D4948600820886088
:100800000120487088700020009001900290694695
:100810006F2021F0D9FF01A9702021F0D5FF02A996
:10082000712021F0D1FF9DED000A10EE101A08464C
:1008300027F00FFF40B99DED000ABCEEC00A10EE94
:10084000100A1C49087002E000201A4908709DED4A
:10085000010A10EE101A084627F0FBFE40B99DED84
:10086000010ABCEEC00A10EE100A1349087002E03B
:100870000020114908709DED020A10EE101A08467A
:1008800027F0E7FE40B99DED020ABCEEC00A10EE6B
:10089000100A0A49087002E00020084908700EBDDD
:1008A00000700040A8690020C8690020E8690020A5
:1008B000086A002056130020571300205813002008
:1008C000CF480078012820D1CE4890ED000AB8EE3C
:1008D000400ADFEDCD0A20EE200ADFEDCC0A80EEE3
:1008E000201ACB4880ED001AC64890ED010AB8EEF8
:1008F000400ADFEDC50A20EE200ADFEDC40A80EED3
:10090000201AC34880ED011A1FE0C24890ED010A89
:10091000B8EE400ADFEDBC0A20EE200ADFEDBB0A8C
:1009200080EE201ABA4880ED001ABA4890ED020A0B
:10093000B8EE400ADFEDB40A20EE200ADFEDB30A7C
:1009400080EE201AB24880ED011AB14890ED000AFD
:10095000F6EE000AB4EEE00AF1EE10FA03D8002039
:10096000AD4908703AE0AA4890ED000ADFEDAB0A05
:10097000B4EEE00AF1EE10FA03D80420A64908709C
:100980002CE0A34890ED000ADFEDA50AB4EEE00AE2
:10099000F1EE10FA03D802209F4908701EE09C482F
:1009A00090ED000ADFED9F0AB4EEE00AF1EE10FAD6
:1009B00003D803209849087010E0954890ED000A8C
:1009C000F0EE080AB4EEE00AF1EE10FA03D80120C6
:1009D0009149087002E000208F4908708E48007825
:1009E00005283CD2DFE800F0030D18243000012078
:1009F0008D4948708D4948708D4948708D494870BF
:100A000037E00020884948700120884948708849AB
:100A10004870884948702CE00120834948700020C4
:100A2000824948700120824948708249487020E01C
:100A300001207D4948707D49487000207C494870FC
:100A400001207C49487014E00120774948707749BB
:100A500048707749487000207649487009E00120C5
:100A600071494870714948707149487071494870BE
:100A700000BF00BF664890ED010AF6EE000AB4EE32
:100A8000E00AF1EE10FA03D800206349487048E00C
:100A90005F4890ED010ADFED680AB4EEE00AF1EE7E
:100AA00010FA03D805205C4948703AE0584890EDA8
:100AB000010ADFED5A0AB4EEE00AF1EE10FA03D8AB
:100AC0000420554948702CE0514890ED010ADFEDB3
:100AD000540AB4EEE00AF1EE10FA03D803204E49AE
:100AE00048701EE04A4890ED010ADFED4E0AB4EE70
:100AF000E00AF1EE10FA03D802204749487010E0EE
:100B0000434890ED010AF0EE080AB4EEE00AF1EE77
:100B100010FA03D801204049487002E000203E4905
:100B200048703D48407806285AD2DFE800F00310AC
:100B30001F2D3C4B0121414880F8411080F8611085
:100B400080F8811080F8A11080F8C11055E00121D3
:100B50003A4880F84110002180F86110012180F8A6
:100B6000811080F8A11080F8C11046E001213348BF
:100B700080F8411080F8611080F8811080F8A11091
:100B8000002180F8C11038E001212C4880F8411084
:100B900080F86110002180F88110012180F8A110F7
:100BA00080F8C11029E00121244880F8411080F824
:100BB000611080F88110002180F8A110012180F8D7
:100BC000C1101AE000211D4880F84110012180F871
:100BD000611080F8811080F8A11080F8C1100CE03D
:100BE0000121164880F8411080F8611080F88110CA
:100BF00080F8A11080F8C11000BF00BF704700004E
:100C000058130020100500203333534000F07F4577
:100C10005C130020C0290020641300209A99D93F5A
:100C2000666606409A991940A8690020C8690020A4
:100C3000E8690020086A0020CDCCAC3FB01D002040
:100C40000EB5FFF73DFE21F0F3FD21F00FFE8F48BA
:100C5000007800B90EBD8E480078032822D101200B
:100C60008C49087040F2DC508B49088048804FF472
:100C70007A7088804000C88008814010488188814F
:100C8000C88101200821854A0023B6EE000ACDE97B
:100C9000002102904FF47A7241F28831804802F0CC
:100CA00068FD43E07A480078022829D1012079497B
:100CB00008707C480088012838D140F2DC50764921
:100CC000088048804FF47A70888040F2DC50C880F9
:100CD0004FF4FA600881401048818881C881012062
:100CE00008216E4A0023B6EE000ACDE900210290E9
:100CF0004FF47A7241F28831694802F03AFD15E00A
:100D000063480078012811D1002062490870082149
:100D1000624A0346B6EE000ACDE9002102904FF484
:100D20007A7241F288315E4802F023FD5E48007815
:100D3000032820D05C48007802281CD05A4800784C
:100D4000012818D10020534908705648008801280E
:100D500011D10020534908800821504A0346B6EEBD
:100D6000000ACDE9002102904FF47A7241F28831F5
:100D70004B4802F0FEFC4D480078032853D04B4806
:100D80000078022826D10120424908704548008891
:100D9000012848D140F2DC503F49088048808880D3
:100DA000C8804FF4FA600881488140108881400073
:100DB000C88101200821394A0023B6EE000ACDE996
:100DC000002102904FF47A7241F28831344802F0E7
:100DD000D0FC28E035480078012824D12D4908703E
:100DE0003048008801281ED140F2DC502A49088092
:100DF00048808880C8804FF4FA600881401048819C
:100E000088814000C88101200821244A0023B6EED1
:100E1000000ACDE9002102904FF47A7241F2883144
:100E20001F4802F0A6FC2248007803282CD0204856
:100E30000078022828D01E480078012824D11549BE
:100E400008701848008801281ED140F2DC50124971
:100E5000088048808880C8804FF4FA60088140107C
:100E6000488140008881C881012008210B4A002365
:100E7000B6EE000ACDE9002102904FF47A7241F2F9
:100E80008831074802F075FC00BFE3E656130020E6
:100E9000A869002066130020286A00200050024044
:100EA000901C002030040020C8690020E869002060
:100EB000086A002010B5284824F0F4F800BF26483E
:100EC00024F00AF90028FAD0244824F0EBF808218D
:100ED000234809F033F82148401E24F0E3F80421A8
:100EE000204809F02BF808211E4809F027F80023B4
:100EF0001A4619461C48FFF7FDFB00231A461946FF
:100F00001948FFF724FC0423012200211648FFF7AB
:100F10001EFC6523022200211348FFF718FC002164
:100F20001148FFF7B7FB00210F48FFF70AFC00212B
:100F30000D48FFF7B3FB01210B48FFF7B8FB1E205C
:100F40000CF05CF9094A00210748FFF7B4FBE021E7
:100F50001E200CF0ABF910BD003800F0040800F0C2
:100F60000040024000700040008003406D06000019
:100F700010B509480088401C0749088008460088C9
:100F8000022800DC10BD002003490880002103482E
:100F9000FFF7A4FB00BFF5E7240500200080034015
:100FA00030B587B0002400200490059006907D485D
:100FB0000078052873DC002039E07B4991ED000AB8
:100FC000F3EE040AB4EEE00AF1EE10FA2AD87749FB
:100FD00091F87410012925D100241BE073493431A4
:100FE00001EB840191ED000ADFED710A60EE200A49
:100FF0009FED701A80EE810A04A901EB8401D1ED06
:10100000000A30EE200A04A901EB840181ED000AF8
:10101000611C8CB2032CE1DB411C88B20021634AC5
:1010200082F874100121644A5E4B1B78D154B0F5EC
:101030007A7FC2DBDDED040A00EE100AB8EE400A4A
:1010400080EE801A5749097801EB41015B4A02EBB7
:10105000810181ED001ADDED050A00EE100AB8EEFF
:10106000400A80EE801A4F49097801EB410102EBFA
:10107000810181ED011ADDED060A00EE100AB8EEDD
:10108000400A80EE801A4749097801EB410102EBE2
:10109000810181ED021A0621424A117000BF4648C3
:1010A00000784549497808404349897808404249D1
:1010B000C97808404049097908403F4949790840C2
:1010C00000286DD03E480078002869D101203C49B5
:1010D000087000203B4908703B4A3C49374802F001
:1010E00027FD3B490870002504E00020324948559F
:1010F000681C85B2062DF8DB35480078012837D109
:101100003248D0ED021AB0EE611AD0ED011AF0EEBD
:10111000610AD0ED001AB0EE610A022027F062F8F1
:101120002948D0ED021AB0EE611AD0ED011AF0EEA6
:10113000610AD0ED001AB0EE610A052027F052F8DE
:1011400017F00EFF0020234908800221224A03469F
:10115000B6EE000ACDE9002102904FF4FA6241F2A6
:1011600088311E4802F005FB01201D49487214E039
:101170000020184908800221174A03469FED190AEA
:10118000CDE9002102904FF4FA6241F28831134810
:1011900002F0EFFA002014490880012007B030BDAA
:1011A0000020FBE7450000206C0E00208421002079
:1011B0000AE81C4100008045470000209C1A0020DE
:1011C0004D00002046000020380000206C1A00204E
:1011D00044000020DA00002000500240681C00207B
:1011E0002E2E0020CDCCCC3D8E0300203EB5002419
:1011F000FE48008800EE100AB8EE400ADFEDFC0A57
:10120000B4EEE00AF1EE10FA22D8FA4890ED000AA6
:10121000DFEDF90AB4EEE00AF1EE10FA18DBF74858
:1012200090ED000ADFEDF60AB4EEE00AF1EE10FAF6
:101230000ED8F44890ED000ADFEDF30AB4EEE00AB0
:10124000F1EE10FA04DBF1480088401CEF490880F9
:10125000E648008800EE100AB8EE400ADFEDE40A26
:10126000B4EEE00AF1EE10FA22D8E24890ED000A5E
:10127000DFEDE10AB4EEE00AF1EE10FA18DBDF4828
:1012800090ED000ADFEDDE0AB4EEE00AF1EE10FAAE
:101290000ED8DC4890ED000ADFEDDB0AB4EEE00A80
:1012A000F1EE10FA04DBD9480088B0F5167F03DAB6
:1012B000D7480078022852D1D648008800284ED15D
:1012C0000120D5490880D54908700020D44908700C
:1012D00001200221D34A00239FEDD30ACDE900214A
:1012E00002904FF47A725100D04802F042FA062080
:1012F000CF4908700020CF490870C44908800024F5
:101300001DE00020CC4908559FEDCC0A04EB4400B9
:10131000CB4901EB800080ED000A9FEDC80A04EB89
:10132000440001EB800080ED010A9FEDC40A04EB4C
:10133000440001EB800080ED020A601C84B2062CA0
:10134000DFDB0A20BF490880012022F03DFA01209E
:1013500022F062FA0020BC490880AD490870AF480D
:10136000007801287ED1A148008800EE100AB8EE6E
:10137000400ADFED9F0AB4EEE00AF1EE10FA19D848
:101380009C4890ED000ADFEDB10AB4EEE00AF1EE00
:1013900010FA0FD8994890ED000AB5EEC00AF1EEA8
:1013A00010FA07D1974890ED000AB5EEC00AF1EEA9
:1013B00010FA03D0A6480078012817D1A548008864
:1013C000401CA449088008460088142803DAA04875
:1013D0000078012806D10020954908709E490880B0
:1013E0009E49088000209A49087097E17F4800884C
:1013F00000EE100AB8EE400ADFED7D0AB4EEE00A16
:10140000F1EE10FA19D87B4890ED000AB5EEC00A4B
:10141000F1EE10FA11D1794890ED000ADFED7A0A69
:10142000B4EEE00AF1EE10FA07DB764890ED000A20
:10143000B5EEC00AF1EE10FA03D085480078022814
:101440001AD184480088401C8249088008460088D8
:10145000142803DA7E480078022809D10120744953
:10146000087000E061E100207B4908807B4908802A
:1014700000207749087051E15C48008800EE100AAE
:10148000B8EE400ADFED5A0AB4EEE00AF1EE10FAC7
:1014900019D8584890ED000AB5EEC00AF1EE10FADE
:1014A00011D1564890ED000ADFED550AB4EEE00A7E
:1014B000F1EE10FA07D8534890ED000AB5EEC00AD5
:1014C000F1EE10FA03D062480078032818D1614881
:1014D0000088401C5F49088008460088142803DA09
:1014E0005B480078032807D102205149087000208A
:1014F00059490880594908800020554908700DE174
:101500003A48008800EE100AB8EE400ADFED380ACB
:10151000B4EEE00AF1EE10FA19D8364890ED000A60
:10152000B5EEC00AF1EE10FA11D1344890ED000A80
:10153000B5EEC00AF1EE10FA09D1324890ED000A7A
:10154000DFED310AB4EEE00AF1EE10FA03DA4048BA
:101550000078042818D13F480088401C3D49088085
:1015600008460088142803DA39480078042807D18F
:1015700003202F4908700020374908803749088028
:10158000002033490870C9E01848008800EE100AAE
:10159000B8EE400ADFED160AB4EEE00AF1EE10FAFA
:1015A00019D8144890ED000AB5EEC00AF1EE10FA11
:1015B00011D1124890ED000AB5EEC00AF1EE10FA12
:1015C00009D1104890ED000ADFED0D0AB4EEE00AF3
:1015D000F1EE10FA03D91E480078052853D11D48B2
:1015E0000088401C1B490880084639E0120400208E
:1015F000004083441C04002000001643180400200F
:101600000000D2C1140400200000D2414E0000208E
:10161000BD09002030040020DA0000204600002030
:101620004400002000500240CDCC4C3E681C0020FD
:10163000450000204D000020470000200000000071
:101640009C1A00208E0300203E040020000016C3D8
:10165000BE09002050000020380400203A04002079
:101660000088142803DA31480078052807D10420BF
:101670002F49087000202F4908802F49088000203A
:101680002A4908704AE02D48008800EE100AB8EE9A
:10169000400A5FED290AB4EEE00AF1EE10FA19D81B
:1016A000274890ED000A5FED2C0AB4EEE00AF1EE57
:1016B00010FA0FDD234890ED000AB5EEC00AF1EEF6
:1016C00010FA07D1204890ED000AB5EEC00AF1EEFD
:1016D00010FA03D015480078062818D11B48008856
:1016E000401C1A49088008460088142803DA0F486D
:1016F0000078062807D105200D49087000200D4903
:1017000008800D49088000200849087006E00F494C
:10171000088800EBD07149100C4A11800B480088F2
:10172000C82802DB0020094908803EBDBE09002010
:1017300045000020380400203A0400201204002054
:101740001C04002018040020140400205000002075
:1017500000B52DED028B83B0FD48FE49097830F8C5
:101760001100E8BB2AF082FD32F0A2FDFA4890EDAC
:10177000000AFA4880ED020AF9480088052190FB2A
:10178000F1F1F848F34A127840F82210F34890ED4E
:10179000000AF548D0ED000A30EE200A8DED000A6F
:1017A000EE4890ED010AF048D0ED200A30EE200A14
:1017B0008DED010AE94890ED020A8DED020ADDED9A
:1017C000021AB0EE611ADDED011AF0EE610ADDEDEC
:1017D000001AB0EE610A012108460AF0F1FC00E0AF
:1017E0000CE00120DA49DB4A127821F812000020CF
:1017F000DE49D84A127841F822005AE2D448D54945
:10180000097830F81100012871D12AF02FFDD7484E
:10181000D049097850F8210005282BD2D44890ED02
:10182000011AF0EE410A90ED001AB0EE410A30F0D4
:1018300005FCB0EE408AB1EE040AB4EEC08AF1EEC7
:1018400010FA0BD8C948C349097850F82100401C48
:10185000C649C04A127841F822000AE0C348BD498F
:10186000097850F821004008C049BA4A127841F876
:1018700022001EE2B94890ED000ABB48D0ED010AF3
:1018800030EE200A8DED000AB44890ED010AB6480A
:10189000D0ED210A30EE200A8DED010AAF4890ED1F
:1018A000020A8DED020ADDED021AB0EE611ADDEDDD
:1018B000011AF0EE610ADDED001AB0EE610A0121B5
:1018C00008460AF07DFCA248A249097830F81100C8
:1018D000401C81B29E489F4A127820F812100021C5
:1018E000A2489C4A127840F82210E2E1FFE79848AB
:1018F0009849097830F811001F287DDA2AF0B6FCE3
:101900009A489449097850F8210005282BD2984824
:1019100090ED011AF0EE410A90ED001AB0EE410A86
:1019200030F08CFBB0EE408AB1EE040AB4EEC08A0F
:10193000F1EE10FA0BD88D488649097850F821004D
:10194000401C8A49834A127841F822000AE08748FD
:101950008049097850F82100410884487D4A12786E
:1019600040F82210A5E17A487A49097830F8110048
:101970007B4931F81000052190FBF1F07949754A57
:10198000127841F82200754890ED000A70487149BC
:10199000097830F81100744901EB8000D0ED000A9D
:1019A00030EE200A8DED000A6C4890ED010A68487F
:1019B0006849097830F811106B48803000EB8100DD
:1019C000D0ED000A30EE200A8DED010A634890ED5B
:1019D000020A8DED020ADDED021AB0EE611ADDEDAC
:1019E000011AF0EE610ADDED001AB0EE610A012184
:1019F00008460AF0E5FB00E019E05548554909782A
:101A000030F81100401C5249524A127821F8120055
:101A1000002056494F4A127841F822005548B0F844
:101A2000560001289ED154498870088041E14848F9
:101A30004849097830F811001F2855D12AF016FCC2
:101A40004A484449097850F8210005282BD24848D3
:101A500090ED011AF0EE410A90ED001AB0EE410A45
:101A600030F0ECFAB0EE408AB1EE040AB4EEC08A6F
:101A7000F1EE10FA0BD83D483649097850F82100AC
:101A8000401C3A49334A127841F822000AE03748AC
:101A90003049097850F82100400834492D4A12781D
:101AA00041F8220005E1C8202E492A4A127841F85F
:101AB000220027482749097830F81100401C81B2DC
:101AC0002348244A127820F8121000202749214A7E
:101AD000127841F822002748B0F856000128A5D115
:101AE000254988700880E4E019481A49097830F8D7
:101AF0001100202870D12AF0B9FB1A48154909783D
:101B000050F8210050B117481249097850F82100C7
:101B1000401E14490F4A127841F8220011480D491D
:101B2000097850F82100002854D10D48C08F0521B4
:101B300090FBF1F00B49074A127841F82200074860
:101B400090ED000A0848D0ED1F0A30EE200A15E09B
:101B50003C6A00206414002068470020F86C0020D4
:101B6000DC130020686B0020EC6E0020A06A0020CF
:101B700060110020C4660020FC3300208DED000AB7
:101B80004E4890ED010A4E48D0ED3F0A30EE200A53
:101B90008DED010A494890ED020A8DED020ADDED56
:101BA000021AB0EE611ADDED011AF0EE610ADDED08
:101BB000001AB0EE610A012108460AF001FB414813
:101BC0004149097830F81100401C3E493E4A1278DC
:101BD00021F812006DE0FFE73A483B49097830F8F8
:101BE0001100212847D12AF041FB384836490978AD
:101BF00050F8210005282BD2354890ED011AF0EE5F
:101C0000410A90ED001AB0EE410A30F017FAB0EE3A
:101C1000408AB1EE040AB4EEC08AF1EE10FA0BD895
:101C20002A482949097850F82100401C2749264AAA
:101C3000127841F822000AE024482349097850F834
:101C4000210041082148204A127840F8221030E053
:101C50001C481D49097830F81100401C81B2194810
:101C6000194A127820F8121000201849164A1278E2
:101C700041F822001DE013481349097830F811009B
:101C8000222814D10020134981F83000124890ED29
:101C9000260A084680ED060A002015F0BDFAFBEE84
:101CA0000E0A9FED0E0A022007F0A6FB01E02AF0C3
:101CB000DDFA03B0BDEC028B00BD0000F86C002023
:101CC000EC6E00203C6A002064140020A06A002012
:101CD00060110020645E002034200020000000001D
:101CE00010B52DED048B84B09FEDFB0AB0EE408A59
:101CF0009FEDF90AF0EE408A9FEDF70AB0EE409AA8
:101D0000F648F749097830F8110000284DD12AF03B
:101D1000ADFA6420F3494861B7EE000A084680ED49
:101D2000060A0120887042F2107008809FEDEE0ACA
:101D3000EE4880ED020A90ED000AB0EE408A90ED88
:101D4000010AF0EE408A9FEDE80AB0EE409A8DED70
:101D5000018ACDED028A8DED039ADDED031AB0EE16
:101D6000611ADDED021AF0EE610ADDED011AB0EE46
:101D7000610A012108460AF023FA0120D749D84A0E
:101D8000127821F812000020D949D54A127841F87A
:101D90002200D849D24A127841F82200C821D648F8
:101DA000CF4A127840F82210E6E1CC48CC490978B5
:101DB00030F8110001287CD12AF058FACD48C849E2
:101DC000097850F82100062837D30321C348C44AB4
:101DD000127820F812100021C548C14A127840F844
:101DE00022100020C449BE4A127841F82200C1499D
:101DF000BB4A127841F82200BC4890ED000A8DEDF4
:101E0000010A90ED010A8DED020A9FEDB70A8DEDF2
:101E1000030ADDED031AB0EE611ADDED021AF0EEF1
:101E2000610ADDED011AB0EE610A012108460AF0EF
:101E3000C7F904B0BDEC048B10BDAE49A84A1278B6
:101E400051F82200052200212AF01AFD84B2AA4886
:101E5000A349097850F8210050B1A748A049097852
:101E600050F82100401EA4499D4A127841F82200F2
:101E7000A1489B49097850F82100E8BB9F4830F9F8
:101E800024009F49B1F90010401A00EE100AB8EE84
:101E9000C00AB0EE408A994800EB8400B0F9020015
:101EA0009749B1F90210401A00EE100AB8EEC00AC4
:101EB00000E038E0F0EE408A9FED8B0AB0EE409AE9
:101EC0008A4890ED000A30EE080A8DED010A90ED87
:101ED000010A30EE280A8DED020A8DED039ADDED40
:101EE000031AB0EE611ADDED021AF0EE610ADDEDC3
:101EF000011AB0EE610A00E014E0012108460AF080
:101F00005FF902207549764A127821F81200002004
:101F10007749734A127841F822007749704A12785B
:101F200041F8220028E16D486D49097830F8110028
:101F300002287DD12AF09AF96D486949097850F84C
:101F40002100032830D26F48D0ED031AB0EE611A99
:101F50006D48D0ED011AF0EE610AD0ED001AB0EE36
:101F6000610A30F085F8F0EE409AB3EE040AF4EE20
:101F7000C09AF1EE10FA0BD85D485949097850F82B
:101F80002100401C5A49564A127841F822000AE0C2
:101F900057485349097850F8210040085449504A9D
:101FA000127841F822001CE001204C494C4A12787A
:101FB00021F8120000204E49494A127841F82200C7
:101FC00064204D49464A127841F822004948444964
:101FD000097850F82100401C4649414A127841F8DE
:101FE000220044483E49097850F82100062899D338
:101FF00003203A493A4A127821F8120000203C495D
:10200000374A127841F8220000213B48344A1278BE
:1020100040F8221000203749314A127841F8220056
:10202000324890ED000A8DED010A90ED010A00E0C2
:1020300016E08DED020A9FED2C0A8DED030ADDED11
:10204000031AB0EE611ADDED021AF0EE610ADDED61
:10205000011AB0EE610A012108460AF0B1F8E8E67B
:102060001E481F49097830F81100032866D12AF06C
:10207000FDF81F481A49097850F82100052845D273
:10208000214890ED011AF0EE410A90ED001AB0EEF1
:10209000410A2FF0D3FFF0EE409AB1EE040AF4EEBD
:1020A000C09AF1EE10FA0BD811480D49097850F892
:1020B0002100401C0E490A4A127841F822000AE029
:1020C0000B480749097850F8210040080849044A9C
:1020D000127841F822004FE0000000003C6A002026
:1020E0008A140020FC33002000003443F86C0020E8
:1020F000A06A0020306C0020686B0020008703007D
:102100001C870300E0520020601100201B481C497E
:10211000097830F81100401C1849194A127821F842
:10212000120000201749164A127841F822000021B7
:102130001548134A127840F822101DE00F48104944
:10214000097830F81100042814D100200F4981F8D3
:1021500030000F4890ED260A084680ED060A002060
:1021600015F05AF8FBEE0E0A1FED250A022007F0C3
:1021700043F901E02AF07AF800BF5AE63C6A0020F1
:102180008A140020A06A0020686B0020645E002092
:102190003420002010B52DED048B84B09FEDFC0A97
:1021A000B0EE408A9FEDFA0AF0EE408A9FEDF80A01
:1021B000B0EE409AF748F849097830F81100002845
:1021C00052D12AF053F86420F4494861B7EE000A6E
:1021D000084680ED060A0120887042F210700880DF
:1021E0009FEDEF0AEF4880ED020A90ED000AB0EE95
:1021F000408A90ED010AF0EE408A9FEDE90AB0EEC8
:10220000409A8DED018ACDED028A8DED039ADDEDC8
:10221000031AB0EE611ADDED021AF0EE610ADDED8F
:10222000011AB0EE610A0121084609F0C9FF012137
:10223000D848D94A127820F812100021DA48D64A34
:10224000127840F822100020D849D34A127841F879
:102250002200C821D648D04A127840F82210D5482A
:10226000008821F0F3F992E1CA48CB49097830F8A7
:10227000110001287DD129F0F9FFCC48C649097821
:1022800050F82100072838D30320C249C24A1278E7
:1022900021F812000021C448BF4A127840F82210E9
:1022A0000020C349BC4A127841F822000021BF48EF
:1022B000B94A127840F82210BA4890ED000A8DED24
:1022C000010A90ED010A8DED020A9FEDB50A8DED30
:1022D000030ADDED031AB0EE611ADDED021AF0EE2D
:1022E000610ADDED011AB0EE610A0121084609F02C
:1022F00067FF04B0BDEC048B10BDAC49A64A127850
:1023000051F82200062200212AF0BAFA84B2A84825
:10231000A149097850F8210050B1A5489E49097893
:1023200050F82100401EA2499B4A127841F8220031
:102330009F489949097850F82100E8BB9E4830F938
:1023400024009E49B1F90010401A00EE100AB8EEC0
:10235000C00AB0EE408A984800EB8400B0F9020051
:102360009649B1F90210401A00EE100AB8EEC00A00
:1023700000E039E0F0EE408A9FED890AB0EE409A25
:10238000884890ED000A30EE080A8DED010A90EDC4
:10239000010A30EE280A8DED020A8DED039ADDED7B
:1023A000031AB0EE611ADDED021AF0EE610ADDEDFE
:1023B000011AB0EE610A00E015E00121084609F0BB
:1023C000FFFE02207349744A127821F8120000209F
:1023D0007549714A127841F82200002174486E4A0A
:1023E000127840F82210D2E06A486B49097830F838
:1023F000110002287ED129F039FF6B48664909781F
:1024000050F82100032830D26D48D0ED031AB0EE09
:10241000611A6C48D0ED011AF0EE610AD0ED001A95
:10242000B0EE610A2FF024FEF0EE409AB2EE040AFC
:10243000F4EEC09AF1EE10FA0BD85B4856490978D1
:1024400050F82100401C5849534A127841F82200A4
:102450000AE055485049097850F82100400852498F
:102460004D4A127841F822001DE0012049494A4AAC
:10247000127821F8120000204B49474A127841F89F
:1024800022004FF4C8704A49434A127841F82200AA
:1024900046484149097850F82100401C43493E4ACA
:1024A000127841F8220041483B49097850F8210050
:1024B000072835D303203749374A127821F812000C
:1024C00000203949344A127841F822003849324A0A
:1024D000127841F8220035492F4A127841F822003B
:1024E000304890ED000A8DED010A90ED010A8DED66
:1024F000020A00E070E09FED2A0A8DED030ADDED8F
:10250000031AB0EE611ADDED021AF0EE610ADDED9C
:10251000011AB0EE610A0121084609F051FEE8E611
:1025200029480078012800D1E3E620481A490978B3
:1025300050F8210000282AD02448B0F8560001287D
:1025400025D105211348144A127820F812100021D1
:102550001548114A127840F822104FF4FA601449D5
:102560000D4A127841F8220010480B49097830F8DA
:10257000210017490880C82016494861B6EE000AB4
:10258000084680ED060A012088700A2008805EE374
:10259000000000003C6A00208B140020FC33002067
:1025A00000003443F86C0020A06A0020306C00204A
:1025B000686B002046140020208703001C8703005E
:1025C000E0520020601100204C140020C46600205E
:1025D0009414002018340020FD48FE49097830F892
:1025E000110003284DD129F041FEFB48F949097833
:1025F00050F8210005282BD2F84890ED011AF0EE92
:10260000410A90ED001AB0EE410A2FF017FDF0EEEE
:10261000409AB1EE040AF4EEC09AF1EE10FA0BD82B
:10262000ED48EC49097850F82100401CEA49E94A94
:10263000127841F822000AE0E748E649097850F8A4
:1026400021004008E449E34A127841F82200FEE202
:10265000DF48E049097830F81100401C81B2DC48BD
:10266000DC4A127820F812100020DB49D94A12788F
:1026700041F822000021DA48D64A127840F82210A8
:10268000E5E2D348D349097830F81100042814D181
:102690000020D44981F83000D34890ED260A08463E
:1026A00080ED060A002014F0B7FDFBEE0E0A1FEDC8
:1026B000480A022006F0A0FEC9E2C548C5490978CB
:1026C00030F8110005287DD101F024FEC548D0ED79
:1026D000040AB0EE600AB2EE041AFAEE040A2AF016
:1026E0008FF8C04880ED040AD0ED050AB0EE600A0C
:1026F000B2EE041AFAEE040A2AF082F8B94880ED24
:10270000050A0020B74981F83000B74890ED260A45
:10271000084680ED060A5FED620A1FED630A00209D
:1027200006F06AFEAE48AB49097850F8210050B176
:10273000AB48A849097850F82100401EA849A54A8D
:10274000127841F82200A648A249097850F82100E1
:10275000C8BB012014F060FDA44890ED010AB0EE62
:10276000408A90ED020AF0EE408A9FEDA10AB0EE99
:10277000409A8DED018ACDED028A8DED039ADDED53
:10278000031AB0EE611ADDED021AF0EE610ADDED1A
:10279000011AB0EE610A0121084609F011FD8C48CA
:1027A0008C49097830F81100401C8949894A12780F
:1027B00021F8120000208849864A127841F8220048
:1027C000002101E08DE010E08548824A127840F84F
:1027D0002210864890ED010A864880ED000A834861
:1027E00090ED020A844880ED000A7B487949097817
:1027F00050F8210003282BD2804890ED181AF0EEF3
:10280000410A90ED171AB0EE410A2FF017FCF0EED6
:10281000409AB1EE040AF4EEC09AF1EE10FA0BD829
:102820006D486C49097850F82100401C6A49694A92
:10283000127841F822000AE067486649097850F8A2
:10284000210040086449634A127841F82200FEE101
:10285000012014F0E1FC654890ED010AB0EE408AD9
:1028600090ED020AF0EE408A9FED610AB0EE409AC8
:102870008DED018ACDED028A8DED039ADDED031A0F
:10288000B0EE611ADDED021AF0EE610ADDED011A1B
:10289000B0EE610A0121084609F092FC4C484D490E
:1028A000097830F81100401C49494A4A127821F849
:1028B000120000204849474A127841F8220048494E
:1028C000444A127841F82200484890ED010A4948EC
:1028D00080ED000A454890ED020A474880ED000A65
:1028E000B5E13B483B49097830F81100062850D142
:1028F00029F0BCFC38483749097850F82100C8282D
:102900002ED23F4890ED030AB5EEC00AF1EE10FA60
:1029100002DD90ED030A04E0394890ED030AB1EEC0
:10292000400AF2EE040AB4EEE00AF1EE10FA0BD817
:1029300029482849097850F82100401C2649254A91
:10294000127841F8220082E123482249097850F8A0
:102950002100400820491F4A127841F8220076E100
:102960001B481C49097830F81100401C1849194AC5
:10297000127821F8120000201749164A127841F8FF
:1029800022004FF416701649124A127841F82200BC
:102990005DE10F480F49097830F81100072852D13E
:1029A00029F064FC0E480B49097850F8210050B119
:1029B0000B480849097850F82100401E0849054A8B
:1029C000127841F822000648024909781AE000000E
:1029D0003C6A00208B140020A06A002060110020B7
:1029E000686B0020645E00203420002040630020DB
:1029F0000000C8428C14002090140020C4660020FF
:102A0000E052002050F8210000289CD19148008815
:102A100020F01CFE90489149097830F81100401CC4
:102A20008D498E4A127821F8120000208C498B4A79
:102A3000127841F822004FF4C8708A49874A127808
:102A400041F8220003E184488449097830F81100F4
:102A500008287DD129F00AFC82488049097850F87D
:102A6000210050B17F487D49097850F82100401E6F
:102A70007C497A4A127841F822007A4877490978E5
:102A800050F821000028DDD10120774908707748EF
:102A900090ED000A7648D0ED000A70EEC00A754845
:102AA000B0F9000000EE100AB8EEC00A30EE800A5D
:102AB000BDEEC00A10EE100A00B26F4908806B48E4
:102AC00090ED010A6D48D0ED000A70EEC00A694829
:102AD000B0F9020000EE100AB8EEC00A30EE800A2B
:102AE000BDEEC00A10EE100A00B2654908806548C4
:102AF00090ED010A8DED010A90ED020A8DED020ABA
:102B00009FED610A8DED030ADDED031AB0EE611A47
:102B1000DDED021AF0EE610ADDED011AB0EE610A98
:102B20000121084609F04CFB4B484C49097830F824
:102B30001100401C4849494A127821F8120000202F
:102B40004749464A127841F822004649434A00E084
:102B500003E0127841F8220079E03F483F490978C4
:102B600030F81100092870D129F080FB3C483B491E
:102B7000097850F82100C8282ED2444890ED030A65
:102B8000B5EEC00AF1EE10FA02DD90ED030A04E0A2
:102B90003E4890ED030AB1EE400AF2EE040AB4EEAC
:102BA000E00AF1EE10FA0BD82D482C49097850F8BC
:102BB0002100401C2A49294A127841F8220046E0A7
:102BC00027482649097850F8210040082449234A1B
:102BD000127841F822003AE001201F491F4A12787A
:102BE00021F8120000201E491C4A127841F82200E8
:102BF00000211C48194A127840F822102448008805
:102C0000401C2449154A127841F82200174890EDDB
:102C1000000A8DED010A90ED010A8DED020A9FED8B
:102C20001A0A8DED030ADDED031AB0EE611ADDED2F
:102C3000021AF0EE610ADDED011AB0EE610A01211F
:102C4000084609F0BDFA02E0FFE729F00FFB00BFDC
:102C500065E40000441400203C6A00208B1400202E
:102C6000A06A0020686B00204C140020F86C002043
:102C70008C1400201C8703004814002090140020AE
:102C80004A1400204063002000003443E05200203A
:102C900094140020306C0020294890ED000A294847
:102CA000D0ED000A30EE600A274880ED000A274880
:102CB0000079012821D1244890ED000A244880EDB4
:102CC000000A1D200AE0204991ED000A2049243124
:102CD00001EB800181ED000A411E88B20028F2DC80
:102CE000194890ED000A1A4880ED090A164890ED3F
:102CF000000A184880ED010A20E0174890ED180AF4
:102D0000134880ED000A1D200AE0134991ED180ACE
:102D10000F49243101EB800181ED000A411E88B288
:102D20000028F2DC0C4890ED180A094880ED090AE9
:102D3000094890ED180A074880ED010A7047000025
:102D4000C8040020E80E0020D40400207C0E0020DF
:102D500068470020E05200208421002070B52DED4E
:102D6000028B044694ED050AF94880ED010A94EDC2
:102D7000040A80ED5F0AF74890ED180AF648D0ED96
:102D8000000A30EE600AF24880ED600AF14890EDEA
:102D9000170AF248D0ED000A30EE600AEC4880EDE8
:102DA000020A9FEDEF0A00F5BC7014F0DFFE9FED04
:102DB000EC0AE74814F0DAFEE54890ED0C0A80EDE5
:102DC000300A90ED6A0A80ED8E0A94F830000628E9
:102DD00034D2DFE800F00334A4F3F2F194ED060AF4
:102DE000B5EEC00AF1EE10FA1FD1D94890EDBD0A38
:102DF000B5EEC00AF1EE10FA05D1D64890ED190AE9
:102E0000D34880EDBD0AD34890ED190AD04880ED33
:102E1000BE0A9FEDD30A00F53C7015F053FBCC4879
:102E200090EDC80A80EDEC0A08E09FEDCE0AC84894
:102E300080EDBD0A94ED060A80EDEC0AD8E194F825
:102E40003100012825D1D4ED060AB0EE600AB5EEB6
:102E5000C00AF1EE10FA05D2DFEDC30A70EE200AC7
:102E6000B0EE600ADFEDC00AB4EEE00AF1EE10FA4F
:102E700005DDDFEDBD0A70EE600AB0EE600AB44811
:102E800080EDBD0A002084F83100E08584F832002E
:102E900000BF94F8320028BBAD4890EDBF0AB5EEF4
:102EA000C00AF1EE10FA02DD90EDBF0A04E0A84876
:102EB00090EDBF0AB1EE400AF0EE080AB4EEE00A67
:102EC000F1EE10FA03D2E08D401CE08504E0E08DC5
:102ED00000EBD0714910E185E08DC82802DB0120AC
:102EE00084F832009B4890ED190A994880EDBE0A9B
:102EF0009FED9B0A00F53C7015F0E4FA9448D0ED84
:102F0000C80AB0EE600AB3EE091AFBEE090A29F00E
:102F100077FCB0EE408A8E4880EDEC8A68E194F848
:102F2000310001282AD18B48D0ED190A94ED061AF8
:102F300070EEC10AB0EE600AB5EEC00AF1EE10FA0A
:102F400005D2DFED890A70EE200AB0EE600ADFEDEF
:102F5000860AB4EEE00AF1EE10FA05DDDFED820A32
:102F600070EE600AB0EE600A794880EDBD0A00207C
:102F700084F83100E08584F8320000BF94F8320014
:102F800040BB734890EDBF0AB5EEC00AF1EE10FAEF
:102F900002DD90EDBF0A04E06D4890EDBF0AB1EE8E
:102FA000400AF0EE080AB4EEE00AF1EE10FA06D29A
:102FB000E08D401CE08507E0E4E09DE027E0E08D47
:102FC00000EBD0714910E185E08DC82802DB0120BB
:102FD00084F832005F4890ED190A5D4880EDBE0A22
:102FE0009FED5F0A00F53C7015F06CFA5848D0ED83
:102FF000C80AB0EE600AB3EE091AFBEE090A29F01E
:10300000FFFBB0EE408A524880EDEC8AF0E094F885
:10301000310001282AD14F48D0ED190A94ED061A43
:1030200070EE810AB0EE600AB5EEC00AF1EE10FA59
:1030300005D2DFED4D0A70EE200AB0EE600ADFED3A
:103040004A0AB4EEE00AF1EE10FA05DDDFED460AB9
:1030500070EE600AB0EE600A3D4880EDBD0A0020C7
:1030600084F83100E08584F8320000BF94F8320023
:1030700028BB374890EDBF0AB5EEC00AF1EE10FA52
:1030800002DD90EDBF0A04E0314890EDBF0AB1EED9
:10309000400AF0EE080AB4EEE00AF1EE10FA03D2AC
:1030A000E08D401CE08504E0E08D00EBD07149101C
:1030B000E185E08DC82802DB012084F83200254834
:1030C00090ED190A224880EDBE0A9FED250A00F511
:1030D0003C7015F0F7F91E48D0EDC80AB0EE600A52
:1030E000B3EE091AFBEE090A29F08AFBB0EE408A1A
:1030F000174880EDEC8A7BE02DF0F8FE054694F849
:103100003100012818D1D4ED060AF1EE600AB0EEC4
:10311000600AB3EE091AFBEE090A29F071FBB0EE62
:10312000408A0B4880EDEC8A002084F83100E0856D
:1031300084F83200656300BF94F83200B0B9616B67
:10314000681AA16B814202D8012184F8321018E07C
:10315000784E0020142200209800002094000020C7
:103160000AD7A33B000000000000B4431FED030A90
:10317000214880EDEC0A214890ED190A1E4880EDA7
:10318000BD0A35E02DF0B2FE054694F83100012865
:1031900016D1D4ED060AB0EE600AB3EE091AFBEEC2
:1031A000090A29F02DFBB0EE408A134880EDEC8A25
:1031B000002084F83100E08584F83200656300BFA8
:1031C00094F8320040B9616B681AA16B814202D851
:1031D000012184F832100AE01FED1E0A064880ED36
:1031E000EC0A064890ED190A034880EDBD0A00BFBD
:1031F00000BFBDEC028B70BD784E00201422002071
:1032000010B50348FFF7AAFD08F094FA10BD0000BE
:10321000645E002010B50446207821286FD2DFE8D4
:1032200000F0111E324650646F7275787B7E8C9967
:103230009C9FACB9BCCACDD9DCDFF1F4F7FAFB6EC8
:10324000FCFDE90011F0B2FF00209E4981F830003A
:103250009D4890ED260A084680ED060A2FE101F010
:1032600059F80020974981F83000974890ED260AD8
:10327000084680ED060ADFED950A9FED940A0020CE
:1032800006F0BAF81BE123F015FC00208D4981F807
:1032900030008D4890ED260A084680ED060ADFEDE5
:1032A0008B0A9FED8A0A002006F0A6F807E121F0BC
:1032B000F1FADFED860A9FED850A002006F09CF802
:1032C000FDE006F05FFB00207E4981F830007E487B
:1032D00090ED260A084680ED060ADFED7C0A9FED98
:1032E0007B0A002006F088F8E9E006F0DDFBDFED60
:1032F000770A9FED760A002006F07EF8DFE0C0E056
:103300002AF0A0FDDBE02AF013FED8E02AF086FECA
:10331000D5E02AF08DFFD2E02BF050F9CFE06C48D9
:10332000008800EE100AB8EE400A00F0E1F801282B
:1033300002D120780E302070C1E06648008830B994
:103340000720644908800878002120F0C1FAFEF7C0
:10335000FFF9B4E02EF0E2FFB1E028F087FFAEE025
:103360005C48008830B910205A490880087800214C
:1033700020F0AEFA02F054F9A1E05648008830B9C6
:103380001020544908800878002120F0A1FA03F0A9
:10339000E1FC94E003F004F891E04D48008800EE71
:1033A000100AB8EE400A00F0A3F8012802D12078F4
:1033B000401C207083E011F09DFF80E09FED460AE5
:1033C00000F096F8012804D120784449097808448F
:1033D000207074E0FEF784FC71E0FEF7DBFE6EE027
:1033E00001203F49087064203E49088091203E49F1
:1033F000088064E030E011E00FE00DE00BE007E052
:1034000003E0FFE72BF0C2F959E023F0A3FD56E0FB
:1034100023F0B0FC53E052E000BF00BF2A4890ED1B
:10342000240A284880ED040A274890ED250A2548FB
:1034300080ED050A0020234981F83000224890EDF4
:10344000260A084680ED060ADFED200A9FED1F0AD6
:10345000002005F0D1FF32E0002013F0FDFD002038
:10346000184981F83000184890ED260A084680ED8A
:10347000060ADFED1E0A9FED150A022005F0BCFFCB
:103480001DE0114890ED240A0E4880ED040A0E4814
:1034900090ED250A0B4880ED050A0020094981F8C6
:1034A0003000094890ED260A084680ED060ADFED57
:1034B000070A9FED060A002005F09EFF00BF00BF2F
:1034C00010BD0000645E00203420002000000000D9
:1034D000A800002082130020000034438013002045
:1034E0004C140020481400204A140020000048C258
:1034F00000B52DED028B83B0B0EE408A28F0B6FE09
:1035000043484449097830F81100E8BB002042499B
:103510000880424890ED010A414880ED000A3F488A
:1035200090ED020A3E4880ED010A3E4890ED000A07
:103530003B4880ED020A90ED000A8DED000A90ED07
:10354000010A8DED010A90ED020A30EE080A8DEDB8
:10355000020ADDED021AB0EE611ADDED011AF0EE9D
:10356000610ADDED001AB0EE610A0121084608F09B
:1035700027FE01202649274A127821F81200002050
:1035800003B0BDEC028B00BDFFE72148214909785B
:1035900030F81100012838D123481E49097850F825
:1035A0002100C8282FD2214890ED030AB5EEC00AA9
:1035B000F1EE10FA02DD90ED030A04E01B4890EDF5
:1035C000030AB1EE400AF3EE040AB4EEE00AF1EEAB
:1035D00010FA0BD814480F49097850F82100401C04
:1035E00011490C4A127841F822000AE00E480949B4
:1035F000097850F8210040080B49064A127841F832
:1036000022000020BCE70120BAE70020B8E7000054
:103610003C6A0020881400203C0400204063002005
:10362000F86C002068470020A06A0020E0520020CB
:1036300010B522480088401C2049088008460088B0
:10364000C8283ADB002008801D48008800EE100AD8
:10365000B8EE400A9FED1B1AC0EE010A1A4890ED21
:10366000000AF4EEC00AF1EE10FA0EDD90ED000A49
:10367000F1EE080AB4EEE00AF1EE10FA05DD1348A7
:103680000088401C1149088006E01049088800EBBA
:10369000D07149100D4A11800C4800880A280CDBB3
:1036A00000200A4908800A48008830B90521B5EE93
:1036B000000A4FF47A7029F051F810BD2605002059
:1036C000AC00002000007A44180500201C050020F2
:1036D0003004002010B5054821F0E4FC0E21044818
:1036E00006F04AFC1EF034FD10BD0000050800F095
:1036F0000050024010B504462088012803DB2088D2
:10370000401E208004E0217C0022E06806F07FFC5F
:10371000208810B9A07C01282AD12089401C208152
:10372000208900EB80006188884201DB0020208135
:10373000608800EE100AB8EE400AD4ED010A60EE8F
:10374000200A208900EB800000EE100AB8EEC00AC3
:10375000F4EEC00AF1EE10FA05DB227CD1B2E0688B
:1037600006F055FC04E0217C0022E06806F04FFCE6
:1037700010BDF0B505AC70CC00EE901AF8EE600A02
:10378000B1EE041AC0EE811AFCEEE10A10EE907A56
:103790000780428080ED010A0381C460058286743F
:1037A000F0BD000010B504464CB95848FFF7A2FF21
:1037B0005748FFF79FFF5748FFF79CFFA4E0012CF5
:1037C0005CD15548007848B95148FFF793FF4F48FE
:1037D00006F022FC4F4806F01FFC95E04E480078AA
:1037E000012809D14A48FFF785FF484806F014FC34
:1037F000484806F011FC87E047480078022809D1C4
:103800004348FFF777FF414806F006FC414806F0C1
:1038100003FC79E040480078032809D13C48FFF7D1
:1038200069FF3A4806F0F8FB3A4806F0F5FB6BE012
:1038300039480078042809D13548FFF75BFF334841
:1038400006F0EAFB334806F0E7FB5DE0324800781B
:10385000052809D12E48FFF74DFF2C4806F0DCFB68
:103860002C4806F0D9FB4FE02848FFF743FF2848D3
:10387000FFF740FF2748FFF73DFF45E0022C32D11C
:103880002648007848B92248FFF734FF1F4806F061
:10389000C3FB204806F0C0FB36E020480078012832
:1038A00009D11B48FFF726FF184806F0B5FB194859
:1038B00006F0B2FB28E019480078022809D1144824
:1038C000FFF718FF114806F0A7FB124806F0A4FB0B
:1038D0001AE00E48FFF70EFF0D48FFF70BFF0D48EB
:1038E000FFF708FF10E0032C0ED1002202210C4844
:1038F00006F08DFB00220421094806F088FB002217
:103900000821074806F083FB10BD0000681C00205A
:103910007C1C0020901C002045000020640000203A
:103920000050024010B50446A078012804D10020C0
:10393000A070A080E0802072E0882188884202D1B7
:103940000120207210BDA088401CA08094ED050AC3
:10395000B8EE400AD4ED060A60EE200AA08800EE18
:10396000100AB8EE400AF4EEC00AF1EE10FA05DDD6
:10397000217C0022E06806F04AFB13E0A088616920
:10398000884205D2227C1146E06806F040FB09E03F
:10399000227C1146E06806F03AFB0020A080E08817
:1039A000401CE08000BFCDE710B50548F2EE040AE8
:1039B0009FED040A2EF0EAFE2EF03EFE10BD000040
:1039C000B81C00200000484210B5435C084C23702E
:1039D0004B1CC35C63708B1CC35CA370CB1CC35CAF
:1039E000E370234693ED000A82ED000A10BD00004B
:1039F000340D002010B502460B46002017E09FED65
:103A00000D0A02EB800484ED000A00210BE09FED1B
:103A1000090A00EB400403EBC40404EB810484EDC9
:103A2000000A4C1C21B20629F1DB441C20B20628F6
:103A3000E5DB10BD00000000F0B586B004460D4681
:103A4000F7EE001AB0EE611A002035E0C61C02EB5A
:103A50008606D6ED000A03EB8006D6ED001A02EBCF
:103A6000800696ED002A31EEC20A60EEA01A21EE21
:103A7000802AF0EE411A42EE401AB0EE611AF0EEE2
:103A8000001A60EEA11A61EEA01A61EE801A6E466D
:103A900006EB8006C6ED001AF8EE001A60EEA11AD9
:103AA00061EE801A61EE801AC61C6F4607EB86062F
:103AB000C6ED001A461C30B20328C7DB002032E0F6
:103AC00004EB8006D6ED001A6E4606EB800696EDF6
:103AD000002A42EE011A04EB8006C6ED001A00210E
:103AE0001DE000EB400605EBC60606EB8106D6EDB1
:103AF000001A6E4606EB800696ED002A6E4606EB2F
:103B00008106D6ED002A42EE221A00EB400605EBB4
:103B1000C60606EB8106C6ED001A4E1C31B2062918
:103B2000DFDB461C30B20628CADB06B0F0BD000061
:103B30002DE9F0432DED028BB9B007460E46144631
:103B40004FF000089FED9E0AB0EE408A9FED9D0A5F
:103B5000F0EE408A0020369037903890182130A837
:103B6000FCF70BFD18212AA8FCF707FD182124A853
:103B7000FCF703FD90216846FCF7FFFC4FF00109BC
:103B80009FED910A8DED320A8DED310A8DED300AEF
:103B90009FED8E0A8DED350A8DED340A8DED330AD9
:103BA0007DE008F101000FFA80F8694624A8FFF7CC
:103BB00021FF00251FE005EB450007EB800090ED9D
:103BC000000A8DED360A05EB450007EB800090ED0D
:103BD000010A8DED370A05EB450007EB800090EDFB
:103BE000020A8DED380A36AB30AA694624A8FFF7E1
:103BF00023FF681C05B2062DDDDB2AAA694624A82E
:103C00002AF098FF9DED2D0A20EE000ADDED330A23
:103C100020EEA01AC0EE010A9DED2A0A20EE000A4D
:103C20009DED2B1ADDED2B1A01EE210A9DED2C1ACC
:103C3000DDED2C1A01EE210A30EE800ADDED2E0AB0
:103C400060EEA00A9DED341A21EE011AC0EE811A31
:103C500070EE210A9DED2F0A20EE000A9DED351A27
:103C600021EE011AC0EE011A30EEA10AF0EE408AF0
:103C7000002512E030A800EB850090ED000A2AA88C
:103C800000EB8500D0ED000A30EE600A30A800EBB2
:103C9000850080ED000A681C05B2062DEADBB8F14C
:103CA000140F05DAF4EEC88AF1EE10FA3FF779AF97
:103CB0009DED330ADFED460A20EE200A84ED000A6E
:103CC0009DED340ADFED420A20EE200A84ED010A60
:103CD0009DED350ADFED3E0A20EE200A84ED020A52
:103CE0009DED300AD4ED000A20EE200A86ED000A90
:103CF0009DED310AD4ED010A20EE200A86ED010A7D
:103D00009DED320AD4ED020A20EE200A86ED020A69
:103D100094ED000AF7EE000A30EE600AB0EEC00A39
:103D2000DFED2C0AB4EEE00AF1EE10FA1DDC94EDA2
:103D3000010AF7EE000A30EE600AB0EEC00ADFEDCD
:103D4000250AB4EEE00AF1EE10FA0EDC94ED020A58
:103D5000F7EE000A30EE600AB0EEC00ADFED1D0A91
:103D6000B4EEE00AF1EE10FA01DD4FF0000996ED35
:103D7000000AB0EEC00AF1EE040AB4EEE00AF1EE79
:103D800010FA15DC96ED010AB0EEC00AF1EE040A55
:103D9000B4EEE00AF1EE10FA0ADC96ED020AB0EE9B
:103DA000C00AF1EE040AB4EEE00AF1EE10FA01DD09
:103DB0004FF00009484639B0BDEC028BBDE8F083F6
:103DC0005F7089300000C842000000007FD6D03DFF
:103DD0000AE81C41CDCC4C3E10B5064800880128AD
:103DE00000D110BDFDF702FA0CF0ECF903F0E4FF8E
:103DF00000BFF6E73004002010B509480078401CE9
:103E00000749087008460078042804DB01F01CFA12
:103E100000200349087022F0D3FE00F037FF10BDE8
:103E200002120020002009490978012901D140F03F
:103E3000010007490978012901D140F00200054934
:103E40000978012901D140F0040070479003002057
:103E5000460000205C00002010B52DED028B86B0DE
:103E6000142101A8FCF789FB9FED780AB0EE408A87
:103E700000207749087077490870002401201FE06E
:103E8000C0EBC001744A02EBC101C989B1B17049EC
:103E90000978491C6E4A1170C0EBC0016E4A02EBF2
:103EA000C10191ED080A2146621CD4B201AA02EBBD
:103EB000810181ED000A0121664A1170411CC8B2DE
:103EC0000528DDDB654890ED040AB5EEC00AF1EE89
:103ED00010FA1BDD90ED040ADFED610AB4EEE00A92
:103EE000F1EE10FA12D25A480078401C5849087076
:103EF0005A4890ED040A2046611CCCB201A901EB9E
:103F0000800080ED000A0120524908705048007876
:103F100028B99FED530A534880ED000A92E04C48BF
:103F20000078012805D19DED010A4E4880ED000A78
:103F300088E04748007802280DD19DED021AF0EE86
:103F4000410A9DED011AB0EE410A25F0C7FC454833
:103F500080ED000A76E03E480078032819D19DEDF7
:103F6000021AF0EE410A9DED011AB0EE410A25F069
:103F7000B5FCB0EE408A9DED030AF0EE400AB0EECB
:103F8000480A25F0ABFCB0EE408A364880ED008A46
:103F900058E02F480078042823D19DED021AF0EE56
:103FA000410A9DED011AB0EE410A25F097FCB0EEF2
:103FB000408A9DED030AF0EE400AB0EE480A25F073
:103FC0008DFCB0EE408A9DED040AF0EE400AB0EEA2
:103FD000480A25F083FCB0EE408A224880ED008A32
:103FE00030E01B48007805282CD19DED021AF0EE38
:103FF000410A9DED011AB0EE410A25F06FFCB0EECA
:10400000408A9DED030AF0EE400AB0EE480A25F022
:1040100065FCB0EE408A9DED040AF0EE400AB0EE79
:10402000480A25F05BFCB0EE408A9DED050AF0EEF3
:10403000400AB0EE480A25F051FCB0EE408A09482B
:1040400080ED008A06B0BDEC028B10BD00000000C0
:104050006C0D00206D0D0020083100202835002057
:1040600000004843680D002010B50146002001EB18
:10407000C1026E4B13F8222001EBC1036B4C04EB21
:1040800083035B781A4001EBC10304EB83039B7845
:104090001A4001EBC10304EB8303DB781A4001EB08
:1040A000C10304EB83031B791A4001EBC10304EB4A
:1040B00083035B791A4001EBC10304EB83039B7913
:1040C0001A4001EBC10304EB8303DB791A4001EBD7
:1040D000C10304EB83031B7A1A4001EBC10304EB19
:1040E00083035B7A1A4001EBC10304EB83039B7AE1
:1040F0001A4001EBC10304EB8303DB7A1A4001EBA6
:10410000C10304EB83031B7B1A4001EBC10304EBE7
:1041100083035B7B1A4001EBC10304EB83039B7BAE
:104120001A4001EBC10304EB8303DB7B1A4001EB74
:10413000C10304EB83031B7C1A4001EBC10304EBB6
:1041400083035B7C1A4001EBC10304EB83039B7C7C
:104150001A4001EBC10304EB8303DB7C1A4001EB43
:10416000C10304EB83031B7D1A4001EBC10304EB85
:1041700083035B7D1A4001EBC10304EB83039B7D4A
:104180001A4001EBC10304EB8303DB7D1A4001EB12
:10419000C10304EB83031B7E1A4001EBC10304EB54
:1041A00083035B7E1A4001EBC10304EB83039B7E18
:1041B0001A4001EBC10304EB8303DB7E1A4001EBE1
:1041C000C10304EB83031B7F1A4001EBC10304EB23
:1041D00083035B7F1A4001EBC10304EB83039B7FE6
:1041E0001A4001EBC10304EB8303DB7F1A4001EBB0
:1041F000C10304EB830393F820301A4001EBC103A1
:1042000004EB830393F821301A4001EBC10304EB64
:10421000830393F822301A4001EBC10304EB8303BC
:1042200093F823301A4002B1012010BD5C1B00201E
:1042300070B52DED0E8B0546B0EE408A00245DE092
:1042400004EB4400400000EE100AB8EEC00ADFEDB7
:104250002E0A20EE200A10EE101A084631F052F90C
:1042600041EC1E0BB0EE4E0AF0EE6E0A25F0C4F9DA
:10427000B0EE40CAF0EE60CA18EE100A31F042F912
:1042800053EC1C2B30F048FE41EC1A0B18EE100AD0
:1042900031F038F953EC1A2B31F04AF830F0F6FAD5
:1042A0001A4941F8240004EB4400400000EE100AD3
:1042B000B8EEC00ADFED140A20EE200A10EE101A44
:1042C000084631F01FF941EC1C0BB0EE4C0AF0EE41
:1042D0006C0A26F0CDFBB0EE40AAF0EE60AA18EE14
:1042E000100A31F00FF953EC1A2B30F015FE30F0B4
:1042F000CDFA074941F82400601C84B2681C84424E
:104300009EDBBDEC0E8B70BD35FA8E3C046D00203B
:10431000F86D002010B53A480088401C38490880E4
:104320000846008814284CDB00200880354890F8A7
:104330005900012842D134490870002033490870DF
:10434000304981F859009FED320A324880ED010A68
:10435000084690ED170A2F4880ED020A084690F8AB
:1043600056109FED2D0A2B4813F06CFF9FED280A85
:104370002848BC3080ED010A224890ED180A2548F3
:10438000BC3080ED020A1F4890F856109FED220ABB
:104390002048BC3013F056FF1E4890ED0C0AB1EED9
:1043A000400A1E4880ED000A1A48BC3090ED0C0A05
:1043B000B1EE400A194880ED010A02E001201349DC
:1043C000087012480078012812D10F48007801289F
:1043D00006D102200C490870012012F01DFF0EE0EA
:1043E0000948007802280AD1002012F015FF06E0E3
:1043F0000A48D0ED010A90ED000A13F0D5F810BD7F
:10440000A4110020C4660020A3110020A6110020E2
:1044100000000000F45A0020CDCCCC3D70110020EB
:1044200028480078FF2803D100202749887070476A
:1044300026480088401C254908800846008828280E
:104440003DDB00200880224890ED090AD0ED060AE5
:10445000B4EE600AF1EE10FA1ED190ED0A0AD0ED2A
:10446000070AB4EE600AF1EE10FA15D190ED0B0ACE
:10447000D0ED080AB4EE600AF1EE10FA0CD115483E
:104480000088401C13490880084600880A2810DD6F
:1044900000200D4988700CE00E49088800EBD071AF
:1044A00049100C4A11801046008810B901200649B5
:1044B00088700748034618330ECB24300EC000BF67
:1044C000B5E70000960D00207C0E00209C0D00201A
:1044D00084210020980D002010B507F049FF0A2024
:1044E00001F098F80D21084620F0C0FBFF2800D00D
:1044F00010BD06210D2020F0B9FBFF2800D1F7E701
:1045000015F040F8012006490870064988700648F1
:10451000F3EE020A9FED050A2EF038F900BFE7E737
:10452000960D00207C0E0020941D002000002042EB
:104530001CB504463E480078FF2801D100201CBD70
:104540003C480088401C3B490880084600880128F8
:104550006CD00846008800EE100AB8EE400AF1EE72
:10456000000AB4EEE00AF1EE10FA5FDB30480078A2
:10457000012856D100210D2020F078FB8DF8000095
:1045800001210D2020F072FB8DF8010002210D2089
:1045900020F06CFB8DF8020003210D2020F066FB5B
:1045A0008DF8030004210D2020F060FB8DF804003D
:1045B00005210D2020F05AFB8DF805009DF8000024
:1045C0009DF8011040EA012000B200EE100AB8EE9A
:1045D000C00ADFED190A80EE201A84ED001A9DF85A
:1045E00002009DF8031040EA012000B200EE100A1C
:1045F000B8EEC00ADFED100A80EE201A84ED011A31
:104600009DF804009DF8051040EA012000B200EE7C
:10461000100AB8EEC00ADFED080A80EE201A84ED19
:10462000021A002003490880012088E7002086E75D
:10463000960D00209A0D002000803B4510B52DED11
:104640000E8B0446684890ED130AB0EE408A90ED58
:10465000140AF0EE408A90ED150AB0EE409A90ED03
:10466000160AF0EE409A28EE890AB0EE40CA28EE0B
:10467000290AF0EE40CA28EEA90AB0EE40DA28EE88
:10468000090AF0EE40DA29EE290AB0EE40EA28EEF7
:10469000280AF0EE40EA28EE080AB0EE40AA28EE1A
:1046A000A80AF0EE40AA29EE090AB0EE40BA29EEB7
:1046B000A90AF0EE40BA3AEE2A0A30EE4B0A30EE82
:1046C0006B0A84ED000A3CEE6C0AF0EE000A20EE64
:1046D000200A84ED010A3DEE2D0AF0EE000A20EEDC
:1046E000200A84ED020A3CEE2C0AF0EE000A20EECD
:1046F000200A84ED030A3AEE6A0A30EE0B0A30EE25
:104700006B0A84ED040A3EEE6E0AF0EE000A20EE1B
:10471000200A84ED050A3DEE6D0AF0EE000A20EE57
:10472000200A84ED060A3EEE2E0AF0EE000A20EE84
:10473000200A84ED070A3AEE6A0A30EE4B0A30EEA0
:104740002B0A84ED080AD0ED170A9FED281A60EEB7
:10475000810AB0EE600A04F00DFD234880ED0A0ADC
:10476000D0ED170A9FED211A60EE810AB0EE600AC3
:1047700004F074FA1C4880ED0D0AD0ED180A9FED84
:104780001B1A60EE810AB0EE600A04F0F3FC1648D2
:1047900080ED090AD0ED180A9FED141A60EE810A27
:1047A000B0EE600A04F05AFA0F4880ED0C0AD0ED22
:1047B000190A9FED0E1A60EE810AB0EE600A04F04D
:1047C000D9FC094880ED0B0AD0ED190A9FED071AB4
:1047D00060EE810AB0EE600A04F040FA024880ED13
:1047E0000E0ABDEC0E8B10BD1422002035FA8E3C53
:1047F00070B50446154820F055FC154820F052FCD1
:10480000012005F06DFB40F2014005F069FB03213A
:104810004FF0402005F0ECFB20F018FB054660232C
:10482000224629460B4822F0E5FE0A4822F022FFE4
:104830001021084822F025FF0749064822F025FFED
:104840004021152008F032FD70BD0000000800F086
:10485000001800F000C000402173020070B504464B
:10486000144820F01FFC144820F01CFC4FF00110ED
:1048700005F036FB114805F033FB0321104805F025
:10488000B7FB20F0E3FA05466023224629460D488F
:1048900022F0B0FE0B4822F0EDFE1021094822F074
:1048A000F0FE0949074822F0F0FE6021162008F0CA
:1048B000FDFC70BD010800F0011800F001040100CA
:1048C0000050004000D000405973020010B5154858
:1048D00020F0E8FB144820F0E5FB144805F000FB4D
:1048E000134805F0FDFAC021124805F081FB20F0C5
:1048F000ADFA044660234FF4E13221460E4822F01F
:1049000079FE0D4822F0B6FE10210B4822F0B9FEC8
:104910000A49094822F0B9FE8021312008F0C6FC7E
:1049200010BD0000030800F0021800F00118030099
:10493000011C03000070004000E000408D73020085
:1049400010B5154820F0AEFB144820F0ABFB14481E
:1049500005F0C6FA134805F0C3FAC021124805F065
:1049600047FB20F073FA044660234FF4E1322146FE
:104970000E4822F03FFE0D4822F07CFE10210B482D
:1049800022F07FFE0A49094822F07FFE40214B2099
:1049900008F08CFC10BD0000020800F0031800F0C5
:1049A00001180200011C02000060004000F00040FD
:1049B000C573020070B504460D461B4805801B48B0
:1049C00020F070FB1A4820F06DFB1A481A49086065
:1049D000081D006840F08000091D08600020091FC4
:1049E0000860164805F07CFA154805F079FA302180
:1049F000144805F0FDFA20F029FA06466023224605
:104A00003146114822F0F6FD0F4822F033FE102106
:104A10000D4822F036FE0D490B4822F036FE2021CB
:104A20004E2008F043FC70BDF6040020030800F09F
:104A3000061800F04B434F4C207500400110030056
:104A40000114030000700040002001403574020092
:104A500070B50446154820F025FB154820F022FBD0
:104A6000144805F03DFA144805F03AFA03211348BA
:104A700005F0BEFA20F0EAF90546602322462946F1
:104A80000F4822F0B7FD0F481EF0EFFE0C4822F051
:104A9000F1FD10210A4822F0F4FD0B49084822F0EC
:104AA000F4FD60214F2008F001FC70BD040800F007
:104AB000071800F001000400010404000040024057
:104AC00000300140D2280020F174020010B50446E5
:104AD000144820F0E7FA144820F0E4FA134805F0EF
:104AE000FFF9134805F0FCF93021124805F080FA6F
:104AF0000521114822F07BFD104A2146002022F0BA
:104B0000D9FD0D4822F0B6FD10210B4822F0B9FD69
:104B10000B49094822F0B9FD40214C2008F0C6FBA2
:104B200010BD0000020800F0041800F0011002009F
:104B30000114020000600040000001400024F40065
:104B4000FD73020070B52DED028BB0EE408A044675
:104B50000D4694ED030AB5EEC00AF1EE10FA33D11A
:104B600094ED040AB5EEC00AF1EE10FA2CD194EDE2
:104B7000050AB5EEC00AF1EE10FA25D194ED000A4F
:104B8000B5EEC00AF1EE10FA1ED194ED010AB5EEB1
:104B9000C00AF1EE10FA17D194ED020AB5EEC00A80
:104BA000F1EE10FA10D184ED038A84ED048A84EDCD
:104BB000058A84ED008A84ED018A84ED028AB0EED4
:104BC000480ABDEC028B70BD84ED028A95ED040AA3
:104BD000D4ED020A20EE200AD5ED050A94ED011A63
:104BE00000EE810AD5ED060A94ED001A00EE810A66
:104BF000D5ED020A94ED041A00EEC10AD5ED030AC0
:104C000094ED031A00EEC10A84ED050A94ED010A41
:104C100084ED000A94ED020A84ED010A94ED040A81
:104C200084ED030A94ED050A84ED040A002628E0C9
:104C300004F10C0000EB860090ED000A10EE101A53
:104C4000084623F0F8FC01280AD004EB860090ED1A
:104C5000000A10EE101A084623F0EDFC01280ED1D0
:104C600084ED038A84ED048A84ED058A84ED008A4C
:104C700084ED018A84ED028AB0EE480AA1E7701C37
:104C800086B2032ED4DB94ED050A9AE73EB52CF0EC
:104C900027FF21F09DFCFE48008801287DD1FD48BA
:104CA000007801287AD1FC48B0F90000B0F57A7F8D
:104CB00015DCFA48B0F90000B0F57A7F0FDCF8484F
:104CC000B0F90000B0F57A7F09DCF648B0F90000D1
:104CD000B0F57A7F03DC6420F349088013E0F348E1
:104CE000007880B90020EA4908800821F04A03468C
:104CF000B6EE000ACDE900210290C82240F6B83194
:104D0000EC48FEF736FDEC480088401CEA49088074
:104D10000846008804280BDBE3480088012804DBF0
:104D2000E1480088401EE04908800020E2490880F0
:104D3000DD480088C0F164006421484390FBF1F035
:104D400000F57A7000B2DD490880D7480088C0F1CC
:104D500064006421484390FBF1F000F57A7000B2E2
:104D6000D7490880D0480088C0F1640064214843D6
:104D700090FBF1F000F57A7000B2D2490880CA4881
:104D80000088C0F164006421484390FBF1F000F515
:104D90007A7000B2CC49088001E0EAE104E020F03A
:104DA000F3FF12F07BFAF2E1C848007802287DD1C7
:104DB000C748007801287AD1C648008800EE100A5A
:104DC000B8EE400AF7EE000A20EE200AC248D0ED05
:104DD000990ABFEE001A01EE200AD0ED3B0AB7EEA9
:104DE000001A01EE200AD0EDF70ABFEE001A01EE1C
:104DF000200ABDEEC00A10EE100A00B2AF490880CA
:104E0000B448008800EE100AB8EE400AF7EE000A37
:104E100020EE200AB048D0ED990AB7EE001A01EE54
:104E2000200AD0ED3B0ABFEE001A01EE200AD0EDB9
:104E3000F70ABFEE001A01EE200ABDEEC00A10EE1E
:104E4000100A00B29E490880A248008800EE100AAD
:104E5000B8EE400AF7EE000A20EE200A9E48D0ED98
:104E6000990AB7EE001A01EE200AD0ED3B0AB7EE20
:104E7000001A01EE200AD0EDF70AB7EE001A01EE93
:104E8000200ABDEEC00A10EE100A00B28D4908805B
:104E90009048008800EE100AB8EE400AF7EE000ACB
:104EA00020EE200A8C48D0ED990A01E059E017E085
:104EB000BFEE001A01EE200AD0ED3B0ABFEE001A49
:104EC00001EE200AD0EDF70AB7EE001A01EE200A33
:104ED000BDEEC00A10EE100A00B27B49088013E054
:104EE0007C48008800B2754908807A48008800B282
:104EF000734908807748008800B272490880754875
:104F0000008800B2704908806C48B0F9002040F673
:104F1000C41140F24C4023F07FF86849088068488B
:104F2000B0F9002040F6C41140F24C4023F074F870
:104F3000634908806348B0F9002040F6C41140F28C
:104F40004C4023F069F85F4908805F48B0F90020C1
:104F500040F6C41140F24C4023F05EF85A490880F4
:104F600006E15E48008840F21A4188427DDB5948DC
:104F7000008800EE100AB8EE400AF7EE000A20EEB4
:104F8000200A5548D0ED990ABFEE001A01EE200A1A
:104F9000D0ED3B0AB7EE001A01EE200AD0EDF70A79
:104FA000BFEE001A01EE200ABDEEC00A10EE100A94
:104FB00000B2424908804748008800EE100AB8EE67
:104FC000400AF7EE000A20EE200A4348D0ED990A85
:104FD000B7EE001A01EE200AD0ED3B0ABFEE001A30
:104FE00001EE200AD0EDF70ABFEE001A01EE200A0A
:104FF000BDEEC00A10EE100A00B2314908803548F3
:10500000008800EE100AB8EE400AF7EE000A20EE23
:10501000200A3148D0ED990AB7EE001A01EE200AB5
:10502000D0ED3B0AB7EE001A01EE200AD0EDF70AE8
:10503000B7EE001A01EE200ABDEEC00A10EE100A0B
:1050400000B2204908802348008800EE100AB8EE1C
:10505000400AF7EE000A20EE200A1F48D0ED990A18
:10506000BFEE001A01EE200A00E03CE0D0ED3B0A62
:10507000BFEE001A01EE200AD0EDF70AB7EE001AD3
:1050800001EE200ABDEEC00A10EE100A00B227E0C1
:105090003004002067100020DE110020E011002005
:1050A000E2110020E4110020FA1100206610002017
:1050B00000500240901C0020F8110020D611002062
:1050C000D8110020DA110020DC110020E6110020A8
:1050D00035040020F6110020784E0020F411002045
:1050E0005049088015E05048008800B24F490880B8
:1050F0004D48008800B24E4908804B48008800B2F5
:105100004C4908804848008800B24649088020F091
:105110003BFE4648B0F9002040F6C41140F24C4036
:1051200022F07AFF414908804148B0F9002040F65A
:10513000C41140F24C4022F06FFF3D4908803D48C9
:10514000B0F9002040F6C41140F24C4022F064FF58
:10515000384908803348B0F9002040F6C41140F2C5
:105160004C4022F059FF2F49088021F051FB00BF2D
:105170000DE04FF47A702D4908802D4908802D49A3
:1051800008802849088020F0FFFD12F087F82748A2
:10519000B0F90000284908802548B0F900002749E7
:1051A00008802448B0F90000254908801D48B0F95E
:1051B0000000244908801D48B0F9002040F69801FD
:1051C000002022F029FF194908801948B0F9002071
:1051D00040F69801002022F01FFF1549088015486D
:1051E000B0F9002040F69801002022F015FF114987
:1051F00008800C48B0F9002040F69801002022F009
:105200000BFF084908800C462488A3B2094C248867
:10521000A2B2074C2488A1B2044C2488A0B213F097
:1052200029FE3EBDDC110020F6110020D611002021
:10523000D8110020DA110020DE110020E01100203A
:10524000E2110020E411002070B5BD480078BD498E
:105250000870BD480078BD490870BD480078BD4958
:105260000870BD48B0F85210B0F856000844BB4969
:105270000989884203DB0120B149087002E002205D
:10528000AF490870B448B0F86010B0F86600081A6A
:10529000B2494989884206DC0120B1490870B14908
:1052A00081F83D0009E00FF065FF29F0C3FB002005
:1052B000AB490870AB4981F83D00A749B1F8A60099
:1052C0001DF03CFA0446A449B1F8A8001DF036FAD6
:1052D0000546A54890F84700A34981F84800A3482F
:1052E0000078012806D0022805D003286AD00428B7
:1052F0006FD168E000BFBCB901209D4908702BF058
:10530000F5FD9C4948609FED9C0A9C4880ED010A90
:105310009FED990AA0F5BC7080ED010A02F070FEC5
:1053200000209749087029E0012C12D12BF0DEFDF6
:1053300090490860084600684968401A8D498860AD
:1053400008468068B0F57A7F18D302208849087033
:1053500014E00120864908702BF0C8FD854948609B
:105360009FED850A854880ED010A9FED830AA0F52F
:10537000BC7080ED010A002081490870022C03D125
:1053800002207349087003E014B9012070490870C5
:10539000774800787B49087015B1022D0AD105E0E5
:1053A00001206949087011F079FF09E0022066497F
:1053B000087005E001206449087011F06FFF00BF1C
:1053C00000BF33E000BF2CB1012C1CD0022C27D130
:1053D00022E027E015B1022D0AD105E001205A494B
:1053E000087011F05BFF09E002205749087005E0E2
:1053F00001205549087011F051FF00BF00BF012086
:10540000534908700CE00120574981F847004E4984
:1054100008704F49087003E002204D49087000BF32
:1054200000BF03E001204849087000BF00BF564894
:10543000008801280DD121F03BF854490870084636
:105440000078022803D100204F49088001E020F0B5
:105450009BFC3F4800783F49097888420BD04C4874
:1054600090ED000A4B4880ED010A39480078012888
:1054700001D12BF045F93248007832490978884249
:105480000CD02F480078022802D101204249087030
:105490002B480078012801D13F4908702A4800783C
:1054A0002A490978884202D002203B4908703A48CC
:1054B0000078012811D122480078022809D1374804
:1054C000008837490880324890ED000A314880ED65
:1054D000010A00203049087006E02F4800780228B1
:1054E00002D100202C49087021480078022826D1DA
:1054F0002348007818BB05F07DF988B1244890ED69
:10550000020A1E4880ED010A214890ED010A254853
:1055100080ED010A02F074FD0120194908700EE0C7
:105520009FED150A154880ED010A9FED130A1D48ED
:1055300080ED010A02F064FD00201149087070BD81
:10554000E6110020E7110020E8110020E9110020F9
:10555000EC110020ED11002034200020281F002035
:10556000EA110020645E0020682F00204412002011
:10557000EE110020A45E002000000000D0550020A5
:10558000F0110020EF1100203C040020E01000206A
:1055900068470020E0520020F11100201204002092
:1055A000F21100205854002070B50B4600240178F9
:1055B000FF2902D14178FC2900D070BD002104E010
:1055C000455C2544ECB24D1CE9B25D1E8D42F7DC12
:1055D000C11811F8011CA14200D0EEE7C17811708A
:1055E00000210FE0051D15F81160551C05F811602C
:1055F000051D022606FB01556E78551C05EB41057D
:105600006E70491C15788D42ECDC012182F83D104A
:1056100000BFD2E710B50446204627F03CF910BD84
:1056200000B52DED048B83B09FEDFE0AB0EE408AED
:105630009FEDFC0AF0EE408A9FEDFA0AB0EE409A28
:10564000F948FA49097830F8110000284BD126F0C2
:105650000DFE27F041F99FEDF60AF64880ED020AAB
:1056600090ED000AB0EE408A90ED010AF0EE408A1B
:105670009FEDEF0AB0EE409A8DED008ACDED018AE4
:105680008DED029ADDED021AB0EE611ADDED011A20
:10569000F0EE610ADDED001AB0EE610A0121084664
:1056A00006F08EFD0120E049E04A127821F8120050
:1056B0000020E149DD4A127841F822004FF47A7067
:1056C000DE49DA4A127841F822000120DC4988706C
:1056D0004CF250300880C82048619FEDDA0A084635
:1056E00080ED060A17E2D048D049097830F8110059
:1056F000012864D126F0BAFDD048CC49097850F889
:10570000210050B1CD48C949097850F82100401E08
:10571000CA49C64A127841F82200C848C3490978E4
:1057200050F821000028DDD1C74890ED000AD0EDE7
:10573000010A20EE200AB0EE408A90ED000AD0ED7A
:10574000020A20EE200AF0EE408A9FEDB90AB0EE80
:10575000409AB84890ED000A30EE080A8DED000A34
:1057600090ED010A30EE280A8DED010A8DED029AC6
:10577000DDED021AB0EE611ADDED011AF0EE610AFC
:10578000DDED001AB0EE610A0121084606F018FDB1
:10579000A548A649097830F81100401CA249A34A3F
:1057A000127821F812000020A349A04A127841F88B
:1057B0002200A2499D4A127841F8220092E79A48B5
:1057C0009A49097830F8110002287BD126F04EFD65
:1057D00099489649097850F8210005282BD29B4812
:1057E00090ED011AF0EE410A90ED001AB0EE410A78
:1057F0002CF024FCF0EE409AB1EE040AF4EEC09ACC
:10580000F1EE10FA0BD88C488849097850F821003D
:10581000401C8949854A127841F822000AE08648EE
:105820008249097850F82100400883497F4A12785C
:1058300041F8220056E7844890ED000AD0ED010AB5
:1058400020EE200AB0EE408A90ED000AD0ED020A68
:1058500020EE200AF0EE408A9FED7D0AB0EE409ADD
:10586000744890ED000A30EE080A8DED000A90EDC4
:10587000010A30EE280A8DED010A8DED029ADDED68
:10588000021AB0EE611ADDED011AF0EE610ADDEDEB
:10589000001AB0EE610A0121084606F091FC624848
:1058A0006249097830F81100401C5F495F4A12785C
:1058B00021F81200002160485C4A127840F822105A
:1058C00010E7FFE758485949097830F811000328D4
:1058D00052D126F0CBFC58485449097850F82100A1
:1058E000B0F5C87F2ED25B4890ED030AB5EEC00A32
:1058F000F1EE10FA02DD90ED030A04E0554890ED58
:10590000030AB1EE400AF2EE040AB4EEE00AF1EE48
:1059100010FA0BD848484549097850F82100401C36
:105920004549424A127841F82200DBE642483F49A5
:10593000097850F8210040083F493C4A127841F864
:105940002200CFE638483949097830F81100401C68
:1059500081B23548354A127820F8121000203649B5
:10596000324A127841F822004FF4966033492F4AA8
:10597000127841F82200B5E62B482C49097830F816
:105980001100042879D1FEF7C5FC0020324981F8C6
:105990003000324890ED260A084680ED060ADFED19
:1059A000210A9FED200A002003F026FD23481F490D
:1059B000097850F8210070B120481C49097850F846
:1059C0002100401E1D49194A127841F822004FF467
:1059D000FA601DF019FE19481449097850F82100A1
:1059E0000028A2D140F2DC501DF00EFE0E480F49F7
:1059F000097830F81100401C0B490C4A127821F844
:105A0000120000200C49094A127841F822004FF494
:105A10007A700A49054A127841F82200C8201049D4
:105A2000486120E0000000003C6A0020661400206D
:105A300000001643F86C0020A06A0020686B00206C
:105A4000FC33002048E17A3FD40900206011002097
:105A50000000A042E0520020645E002034200020BC
:105A60001834002009E0B6EE000A084680ED060A68
:105A700001208870042008804DE0F848F849097832
:105A800030F81100052847D1FEF744FC0020F54905
:105A900081F83000F44890ED260A084680ED060AA9
:105AA0005FED200A1FED210A002003F0A5FCEF485E
:105AB000EB49097850F8210050B1EC48E8490978E1
:105AC00050F82100401EE949E54A127841F82200C9
:105AD000E648E349097850F821000028CCD101209C
